:04821D00410004F028
:08808C00E004F0E090E800F0D0
:108094009000001280FB00000000E47F947E11FD3C
:1080A400FC900000E0F8A3E0F9A3E0FAA3E0FBD31E
:1080B4001280DE5021900000E0FCA3E0FDA3E0FE6E
:1080C400A3E02401FFE43EFEE43DFDE43CFC90001B
:0A80D400001280EF80C4E4FEFF22DA
:10820400900004E0540FF090E800F044F090000473
:09821400F090E800F0E4FEFF2206
:1081C100900005E024F9602624FC601224FE702F43
:1081D100900004E0C394F3502312808C80F290004D
:1081E10004E0C394F6500512808C80F2800E90005A
:1081F10004E0C394F9500512808C80F2128204E4E9
:03820100FEFF225B
:10817900900005E024F5601724FD60250470359012
:108189000004E0D394F34029E01412808E80F0902B
:108199000004E0D394F64007E01412808E80F0804A
:1081A90010900004E0D394F04007E01412808E8010
:0881B900F0128204E4FEFF2233
:10812C0090E8037482F090E80074F0F090000A7408
:10813C000EF090E801E0900005F0540FF0640F6031
:10814C002290000AE0FF900005E0FE6F6015EEC380
:10815C009F50051281C18003128179900005E09037
:0D816C00000AF090E801E0900005F080C5E9
:030000000280007B
:0C800000787FE4F6D8FD75810702804708
:1080DE00EB9FF5F0EA9E42F0E99D42F0E89C45F0F8
:0180EE00226F
:0C80EF00ECF0A3EDF0A3EEF0A3EFF02204
:1080FB00A8828583F0D083D0821281121281121252
:10810B008112128112E473E493A3C583C5F0C58376
:10811B00C8C582C8F0A3C583C5F0C583C8C582C8CE
:01812B002231
:10800C0002812CE493A3F8E493A34003F68001F2DD
:10801C0008DFF48029E493A3F85407240CC8C33375
:10802C00C4540F4420C8834004F456800146F6DF44
:10803C00E4800B010204081020408090821DE47E35
:10804C00019360BCA3FF543F30E509541FFEE49339
:10805C00A360010ECF54C025E060A840B8E493A300
:10806C00FAE493A3F8E493A3C8C582C8CAC583CA2B
:10807C00F0A3C8C582C8CAC583CADFE9DEE780BEE3
:01822100005C
:00000001FF
